{
  "address": "0x4A15bB7C738C1237b61d0A96dC2027F067A091Fd",
  "abi": [
    {
      "inputs": [],
      "stateMutability": "nonpayable",
      "type": "constructor"
    },
    {
      "anonymous": false,
      "inputs": [
        {
          "indexed": true,
          "internalType": "address",
          "name": "poolAddress",
          "type": "address"
        },
        {
          "indexed": true,
          "internalType": "address",
          "name": "creator",
          "type": "address"
        },
        {
          "indexed": false,
          "internalType": "uint256",
          "name": "initialSpotPrice",
          "type": "uint256"
        },
        {
          "indexed": false,
          "internalType": "uint256",
          "name": "delta",
          "type": "uint256"
        }
      ],
      "name": "PoolCreated",
      "type": "event"
    },
    {
      "inputs": [],
      "name": "admin",
      "outputs": [
        {
          "internalType": "address",
          "name": "",
          "type": "address"
        }
      ],
      "stateMutability": "view",
      "type": "function"
    },
    {
      "inputs": [
        {
          "components": [
            {
              "internalType": "address",
              "name": "assetToken",
              "type": "address"
            },
            {
              "internalType": "uint256",
              "name": "assetInitialSupply",
              "type": "uint256"
            },
            {
              "internalType": "address",
              "name": "usdcToken",
              "type": "address"
            },
            {
              "internalType": "uint256",
              "name": "usdcInitialSupply",
              "type": "uint256"
            },
            {
              "internalType": "uint256",
              "name": "initialSpotPrice",
              "type": "uint256"
            },
            {
              "internalType": "uint256",
              "name": "delta",
              "type": "uint256"
            },
            {
              "internalType": "uint256",
              "name": "protocolFeeMultiplier",
              "type": "uint256"
            },
            {
              "internalType": "uint256",
              "name": "tradeFeeMultiplier",
              "type": "uint256"
            },
            {
              "internalType": "uint256",
              "name": "publicSaleDuration",
              "type": "uint256"
            },
            {
              "internalType": "uint256",
              "name": "publicSalePrice",
              "type": "uint256"
            }
          ],
          "internalType": "struct IPlantyPool.CreatePoolInput",
          "name": "params",
          "type": "tuple"
        }
      ],
      "name": "createPool",
      "outputs": [
        {
          "internalType": "address",
          "name": "",
          "type": "address"
        }
      ],
      "stateMutability": "nonpayable",
      "type": "function"
    },
    {
      "inputs": [],
      "name": "getAllPools",
      "outputs": [
        {
          "internalType": "contract PlantyPool[]",
          "name": "",
          "type": "address[]"
        }
      ],
      "stateMutability": "view",
      "type": "function"
    },
    {
      "inputs": [],
      "name": "getAllPoolsInfo",
      "outputs": [
        {
          "internalType": "address[]",
          "name": "poolAddresses",
          "type": "address[]"
        },
        {
          "internalType": "uint256[]",
          "name": "spotPrices",
          "type": "uint256[]"
        },
        {
          "internalType": "uint256[]",
          "name": "deltas",
          "type": "uint256[]"
        },
        {
          "internalType": "uint256[]",
          "name": "protocolFeeMultipliers",
          "type": "uint256[]"
        },
        {
          "internalType": "uint256[]",
          "name": "tradeFeeMultipliers",
          "type": "uint256[]"
        },
        {
          "internalType": "uint256[]",
          "name": "reserveAssets",
          "type": "uint256[]"
        },
        {
          "internalType": "uint256[]",
          "name": "reserveUSDCs",
          "type": "uint256[]"
        }
      ],
      "stateMutability": "view",
      "type": "function"
    },
    {
      "inputs": [
        {
          "internalType": "address",
          "name": "poolAddress",
          "type": "address"
        }
      ],
      "name": "getPoolInfo",
      "outputs": [
        {
          "internalType": "uint256",
          "name": "spotPrice",
          "type": "uint256"
        },
        {
          "internalType": "uint256",
          "name": "delta",
          "type": "uint256"
        },
        {
          "internalType": "uint256",
          "name": "protocolFeeMultiplier",
          "type": "uint256"
        },
        {
          "internalType": "uint256",
          "name": "tradeFeeMultiplier",
          "type": "uint256"
        },
        {
          "internalType": "uint256",
          "name": "reserveAsset",
          "type": "uint256"
        },
        {
          "internalType": "uint256",
          "name": "reserveUSDC",
          "type": "uint256"
        }
      ],
      "stateMutability": "view",
      "type": "function"
    },
    {
      "inputs": [
        {
          "internalType": "uint256",
          "name": "",
          "type": "uint256"
        }
      ],
      "name": "pools",
      "outputs": [
        {
          "internalType": "contract PlantyPool",
          "name": "",
          "type": "address"
        }
      ],
      "stateMutability": "view",
      "type": "function"
    }
  ],
  "transactionHash": "0x87f3de1c7d12cf42d47a3b2b41a497d6a76e8376860fefa3bf72bae36f952218",
  "args": [],
  "numDeployments": 1,
  "solcInputHash": "dd74cd990434e3af7f10da0514fb5d17",
  "bytecode": "0x608060405234801561001057600080fd5b50600180546001600160a01b03191633179055612cb9806100326000396000f3fe60806040523480156200001157600080fd5b50600436106200006a5760003560e01c806306bfa938146200006f578063ac4afa3814620000b8578063b4e6147914620000e8578063d88ff1f41462000107578063ec83158d1462000120578063f851a4401462000137575b600080fd5b620000866200008036600462000e1b565b6200014b565b604080519687526020870195909552938501929092526060840152608083015260a082015260c0015b60405180910390f35b620000cf620000c936600462000e40565b620003cc565b6040516001600160a01b039091168152602001620000af565b620000f2620003f7565b604051620000af979695949392919062000e97565b62000111620009c7565b604051620000af919062000f6f565b620000cf620001313660046200100d565b62000a2b565b600154620000cf906001600160a01b031681565b6000806000806000806000879050806001600160a01b031663398482d86040518163ffffffff1660e01b8152600401602060405180830381865afa15801562000198573d6000803e3d6000fd5b505050506040513d601f19601f82011682018060405250810190620001be9190620010a9565b816001600160a01b03166312b495a86040518163ffffffff1660e01b8152600401602060405180830381865afa158015620001fd573d6000803e3d6000fd5b505050506040513d601f19601f82011682018060405250810190620002239190620010a9565b826001600160a01b0316631ce4c78b6040518163ffffffff1660e01b8152600401602060405180830381865afa15801562000262573d6000803e3d6000fd5b505050506040513d601f19601f82011682018060405250810190620002889190620010a9565b836001600160a01b031663a15272976040518163ffffffff1660e01b8152600401602060405180830381865afa158015620002c7573d6000803e3d6000fd5b505050506040513d601f19601f82011682018060405250810190620002ed9190620010a9565b846001600160a01b031663f85cb5c86040518163ffffffff1660e01b8152600401602060405180830381865afa1580156200032c573d6000803e3d6000fd5b505050506040513d601f19601f82011682018060405250810190620003529190620010a9565b856001600160a01b031663c87b502e6040518163ffffffff1660e01b8152600401602060405180830381865afa15801562000391573d6000803e3d6000fd5b505050506040513d601f19601f82011682018060405250810190620003b79190620010a9565b949d939c50919a509850965090945092505050565b60008181548110620003dd57600080fd5b6000918252602090912001546001600160a01b0316905081565b60608060608060608060606000808054905090508067ffffffffffffffff81111562000427576200042762000fbe565b60405190808252806020026020018201604052801562000451578160200160208202803683370190505b5097508067ffffffffffffffff81111562000470576200047062000fbe565b6040519080825280602002602001820160405280156200049a578160200160208202803683370190505b5096508067ffffffffffffffff811115620004b957620004b962000fbe565b604051908082528060200260200182016040528015620004e3578160200160208202803683370190505b5095508067ffffffffffffffff81111562000502576200050262000fbe565b6040519080825280602002602001820160405280156200052c578160200160208202803683370190505b5094508067ffffffffffffffff8111156200054b576200054b62000fbe565b60405190808252806020026020018201604052801562000575578160200160208202803683370190505b5093508067ffffffffffffffff81111562000594576200059462000fbe565b604051908082528060200260200182016040528015620005be578160200160208202803683370190505b5092508067ffffffffffffffff811115620005dd57620005dd62000fbe565b60405190808252806020026020018201604052801562000607578160200160208202803683370190505b50915060005b81811015620009bc5760008082815481106200062d576200062d620010c3565b9060005260206000200160009054906101000a90046001600160a01b03169050808a8381518110620006635762000663620010c3565b60200260200101906001600160a01b031690816001600160a01b031681525050806001600160a01b031663398482d86040518163ffffffff1660e01b8152600401602060405180830381865afa158015620006c2573d6000803e3d6000fd5b505050506040513d601f19601f82011682018060405250810190620006e89190620010a9565b898381518110620006fd57620006fd620010c3565b602002602001018181525050806001600160a01b03166312b495a86040518163ffffffff1660e01b8152600401602060405180830381865afa15801562000748573d6000803e3d6000fd5b505050506040513d601f19601f820116820180604052508101906200076e9190620010a9565b888381518110620007835762000783620010c3565b602002602001018181525050806001600160a01b0316631ce4c78b6040518163ffffffff1660e01b8152600401602060405180830381865afa158015620007ce573d6000803e3d6000fd5b505050506040513d601f19601f82011682018060405250810190620007f49190620010a9565b878381518110620008095762000809620010c3565b602002602001018181525050806001600160a01b031663a15272976040518163ffffffff1660e01b8152600401602060405180830381865afa15801562000854573d6000803e3d6000fd5b505050506040513d601f19601f820116820180604052508101906200087a9190620010a9565b8683815181106200088f576200088f620010c3565b602002602001018181525050806001600160a01b031663f85cb5c86040518163ffffffff1660e01b8152600401602060405180830381865afa158015620008da573d6000803e3d6000fd5b505050506040513d601f19601f82011682018060405250810190620009009190620010a9565b858381518110620009155762000915620010c3565b602002602001018181525050806001600160a01b031663c87b502e6040518163ffffffff1660e01b8152600401602060405180830381865afa15801562000960573d6000803e3d6000fd5b505050506040513d601f19601f82011682018060405250810190620009869190620010a9565b8483815181106200099b576200099b620010c3565b60209081029190910101525080620009b381620010d9565b9150506200060d565b505090919293949596565b6060600080548060200260200160405190810160405280929190818152602001828054801562000a2157602002820191906000526020600020905b81546001600160a01b0316815260019091019060200180831162000a02575b5050505050905090565b6001546000906001600160a01b0316331462000a975760405162461bcd60e51b815260206004820152602160248201527f4f6e6c792061646d696e2063616e2063616c6c20746869732066756e6374696f6044820152603760f91b606482015260840160405180910390fd5b6000338360405162000aa99062000df5565b62000ab692919062001101565b604051809103906000f08015801562000ad3573d6000803e3d6000fd5b50600080546001810182559080527f290decd9548b62a8d60345a988386fc84ba6bc95484008f6362f93160ef3e5630180546001600160a01b0319166001600160a01b0383811691909117909155845160208601516040516323b872dd60e01b8152336004820152306024820152604481019190915292935016906323b872dd906064016020604051808303816000875af115801562000b77573d6000803e3d6000fd5b505050506040513d601f19601f8201168201806040525081019062000b9d919062001198565b50604080840151606085015191516323b872dd60e01b815233600482015230602482015260448101929092526001600160a01b0316906323b872dd906064016020604051808303816000875af115801562000bfc573d6000803e3d6000fd5b505050506040513d601f19601f8201168201806040525081019062000c22919062001198565b508251602084015160405163095ea7b360e01b81526001600160a01b038481166004830152602482019290925291169063095ea7b3906044016020604051808303816000875af115801562000c7b573d6000803e3d6000fd5b505050506040513d601f19601f8201168201806040525081019062000ca1919062001198565b506040808401516060850151915163095ea7b360e01b81526001600160a01b038481166004830152602482019390935291169063095ea7b3906044016020604051808303816000875af115801562000cfd573d6000803e3d6000fd5b505050506040513d601f19601f8201168201806040525081019062000d23919062001198565b5060208301516060840151604051634e6a20ed60e11b81526001600160a01b03841692639cd441da9262000d6292600401918252602082015260400190565b600060405180830381600087803b15801562000d7d57600080fd5b505af115801562000d92573d6000803e3d6000fd5b505050608084015160a08501516040513393506001600160a01b038516927fd569a23a8cff45c641c5d5e4fb55b5e15e918f9acf0fc42b4909adc31f5f806c9262000de592918252602082015260400190565b60405180910390a390505b919050565b611ac780620011bd83390190565b80356001600160a01b038116811462000df057600080fd5b60006020828403121562000e2e57600080fd5b62000e398262000e03565b9392505050565b60006020828403121562000e5357600080fd5b5035919050565b600081518084526020808501945080840160005b8381101562000e8c5781518752958201959082019060010162000e6e565b509495945050505050565b60e08082528851908201819052600090602090610100840190828c01845b8281101562000edc5781516001600160a01b03168452928401929084019060010162000eb5565b5050508381038285015262000ef2818b62000e5a565b915050828103604084015262000f09818962000e5a565b9050828103606084015262000f1f818862000e5a565b9050828103608084015262000f35818762000e5a565b905082810360a084015262000f4b818662000e5a565b905082810360c084015262000f61818562000e5a565b9a9950505050505050505050565b6020808252825182820181905260009190848201906040850190845b8181101562000fb25783516001600160a01b03168352928401929184019160010162000f8b565b50909695505050505050565b634e487b7160e01b600052604160045260246000fd5b604051610140810167ffffffffffffffff811182821017156200100757634e487b7160e01b600052604160045260246000fd5b60405290565b600061014082840312156200102157600080fd5b6200102b62000fd4565b620010368362000e03565b815260208301356020820152620010506040840162000e03565b6040820152606083013560608201526080830135608082015260a083013560a082015260c083013560c082015260e083013560e08201526101008084013581830152506101208084013581830152508091505092915050565b600060208284031215620010bc57600080fd5b5051919050565b634e487b7160e01b600052603260045260246000fd5b600060018201620010fa57634e487b7160e01b600052601160045260246000fd5b5060010190565b6001600160a01b038381168252825116602082015261016081016020830151604083015260408301516200114060608401826001600160a01b03169052565b5060608301516080830152608083015160a083015260a083015160c083015260c083015160e083015260e083015161010081818501528085015191505061012081818501528085015161014085015250509392505050565b600060208284031215620011ab57600080fd5b8151801515811462000e3957600080fdfe60806040523480156200001157600080fd5b5060405162001ac738038062001ac7833981016040819052620000349162000294565b6200003f336200010e565b600180558051600280546001600160a01b039283166001600160a01b031991821617909155604083015160038054919093169116179055608081015160065560a081015160075560c081015160085560e0810151600955610100810151620000a890426200035a565b600a55610120810151600b55620000bf826200015e565b7f37cd71faac1e03245089e1f80709a8db3925386e5e5f01e3958dafa369a34b36600a54600b54604051620000fe929190918252602082015260400190565b60405180910390a1505062000382565b600080546001600160a01b038381166001600160a01b0319831681178455604051919092169283917f8be0079c531659141344cd1fd0a4f28419497f9722a3daafe3b4186f6b6457e09190a35050565b62000168620001e1565b6001600160a01b038116620001d35760405162461bcd60e51b815260206004820152602660248201527f4f776e61626c653a206e6577206f776e657220697320746865207a65726f206160448201526564647265737360d01b60648201526084015b60405180910390fd5b620001de816200010e565b50565b6000546001600160a01b031633146200023d5760405162461bcd60e51b815260206004820181905260248201527f4f776e61626c653a2063616c6c6572206973206e6f7420746865206f776e65726044820152606401620001ca565b565b80516001600160a01b03811681146200025757600080fd5b919050565b60405161014081016001600160401b03811182821017156200028e57634e487b7160e01b600052604160045260246000fd5b60405290565b600080828403610160811215620002aa57600080fd5b620002b5846200023f565b925061014080601f1983011215620002cc57600080fd5b620002d66200025c565b9150620002e6602086016200023f565b82526040850151602083015262000300606086016200023f565b60408301526080850151606083015260a0850151608083015260c085015160a083015260e085015160c08301526101008086015160e084015261012080870151828501528287015181850152505050809150509250929050565b808201808211156200037c57634e487b7160e01b600052601160045260246000fd5b92915050565b61173580620003926000396000f3fe608060405234801561001057600080fd5b50600436106101375760003560e01c806372b308fa116100b8578063a15272971161007c578063a152729714610267578063ade1bc2914610270578063c87b502e14610283578063e9bc63f71461028c578063f2fde38b1461029f578063f85cb5c8146102b257600080fd5b806372b308fa146101f45780638ba00299146102075780638da5cb5b1461023a5780639b6860c81461024b5780639cd441da1461025457600080fd5b806312b495a8116100ff57806312b495a8146101ba5780631ce4c78b146101d15780631e4d185f146101da578063398482d8146101e3578063715018a6146101ec57600080fd5b806307480fd81461013c5780630d20103b146101515780631083f76114610164578063110d35b81461019457806311eac855146101a7575b600080fd5b61014f61014a366004611589565b6102bb565b005b61014f61015f366004611589565b6105e9565b600254610177906001600160a01b031681565b6040516001600160a01b0390911681526020015b60405180910390f35b61014f6101a2366004611589565b610905565b600354610177906001600160a01b031681565b6101c360075481565b60405190815260200161018b565b6101c360085481565b6101c3600a5481565b6101c360065481565b61014f610beb565b61014f6102023660046115a2565b610bff565b61021a610215366004611589565b610c58565b60408051948552602085019390935291830152606082015260800161018b565b6000546001600160a01b0316610177565b6101c3600b5481565b61014f6102623660046115a2565b610d85565b6101c360095481565b61014f61027e366004611589565b610f5d565b6101c360055481565b61021a61029a366004611589565b61127a565b61014f6102ad3660046115c4565b6113cc565b6101c360045481565b6102c3611442565b600a544210156103125760405162461bcd60e51b81526020600482015260156024820152745075626c69632073616c652069732061637469766560581b60448201526064015b60405180910390fd5b600081116103625760405162461bcd60e51b815260206004820152601b60248201527f4d7573742073656c6c206174206c65617374206f6e65206974656d00000000006044820152606401610309565b60008061036e8361127a565b5050915091508260046000828254610386919061160a565b92505081905550816005600082825461039f919061161d565b909155505060068190556002546040516323b872dd60e01b81526001600160a01b03909116906323b872dd906103dd90339030908890600401611630565b6020604051808303816000875af11580156103fc573d6000803e3d6000fd5b505050506040513d601f19601f820116820180604052508101906104209190611654565b6104645760405162461bcd60e51b8152602060048201526015602482015274105cdcd95d081d1c985b9cd9995c8819985a5b1959605a1b6044820152606401610309565b6003546040516370a0823160e01b815230600482015283916001600160a01b0316906370a0823190602401602060405180830381865afa1580156104ac573d6000803e3d6000fd5b505050506040513d601f19601f820116820180604052508101906104d09190611676565b101561051e5760405162461bcd60e51b815260206004820152601b60248201527f496e73756666696369656e742055534443206c697175696469747900000000006044820152606401610309565b60035460405163a9059cbb60e01b8152336004820152602481018490526001600160a01b039091169063a9059cbb906044016020604051808303816000875af115801561056f573d6000803e3d6000fd5b505050506040513d601f19601f820116820180604052508101906105939190611654565b50604080518481526020810184905260009181019190915233907f5aa8e665a6e1c6a7d2c5b99a4189b04b54f8c24e567a02d8fb7d4a63f57e8d6b906060015b60405180910390a250506105e660018055565b50565b6105f1611442565b600a54421061063e5760405162461bcd60e51b8152602060048201526019602482015278139bdd081a5b881c1d589b1a58c81cd85b19481c195c9a5bd9603a1b6044820152606401610309565b6000811161068e5760405162461bcd60e51b815260206004820152601a60248201527f4d75737420627579206174206c65617374206f6e65206974656d0000000000006044820152606401610309565b6004548111156106b05760405162461bcd60e51b81526004016103099061168f565b6000670de0b6b3a7640000600b54836106c991906116c6565b6106d391906116dd565b905080600560008282546106e7919061160a565b925050819055508160046000828254610700919061161d565b90915550506003546040516323b872dd60e01b81526001600160a01b03909116906323b872dd9061073990339030908690600401611630565b6020604051808303816000875af1158015610758573d6000803e3d6000fd5b505050506040513d601f19601f8201168201806040525081019061077c9190611654565b6107bf5760405162461bcd60e51b81526020600482015260146024820152731554d110c81d1c985b9cd9995c8819985a5b195960621b6044820152606401610309565b6002546040516370a0823160e01b815230600482015283916001600160a01b0316906370a0823190602401602060405180830381865afa158015610807573d6000803e3d6000fd5b505050506040513d601f19601f8201168201806040525081019061082b9190611676565b10156108495760405162461bcd60e51b81526004016103099061168f565b60025460405163a9059cbb60e01b8152336004820152602481018490526001600160a01b039091169063a9059cbb906044016020604051808303816000875af115801561089a573d6000803e3d6000fd5b505050506040513d601f19601f820116820180604052508101906108be9190611654565b50604080518381526020810183905233917fca9998f7426828487d4e95306b1997d3ac26bb809bb11fddb00cda3c6283f7b491015b60405180910390a2506105e660018055565b61090d611442565b600a544210156109575760405162461bcd60e51b81526020600482015260156024820152745075626c69632073616c652069732061637469766560581b6044820152606401610309565b600081116109a75760405162461bcd60e51b815260206004820152601a60248201527f4d75737420627579206174206c65617374206f6e65206974656d0000000000006044820152606401610309565b6000806109b383610c58565b50509150915081600560008282546109cb919061160a565b9250508190555082600460008282546109e4919061161d565b909155505060068190556003546040516323b872dd60e01b81526001600160a01b03909116906323b872dd90610a2290339030908790600401611630565b6020604051808303816000875af1158015610a41573d6000803e3d6000fd5b505050506040513d601f19601f82011682018060405250810190610a659190611654565b610aa85760405162461bcd60e51b81526020600482015260146024820152731554d110c81d1c985b9cd9995c8819985a5b195960621b6044820152606401610309565b6002546040516370a0823160e01b815230600482015284916001600160a01b0316906370a0823190602401602060405180830381865afa158015610af0573d6000803e3d6000fd5b505050506040513d601f19601f82011682018060405250810190610b149190611676565b1015610b325760405162461bcd60e51b81526004016103099061168f565b60025460405163a9059cbb60e01b8152336004820152602481018590526001600160a01b039091169063a9059cbb906044016020604051808303816000875af1158015610b83573d6000803e3d6000fd5b505050506040513d601f19601f82011682018060405250810190610ba79190611654565b50604080518481526020810184905260019181019190915233907f5aa8e665a6e1c6a7d2c5b99a4189b04b54f8c24e567a02d8fb7d4a63f57e8d6b906060016105d3565b610bf361149b565b610bfd60006114f5565b565b610c0761149b565b610c11824261160a565b600a819055600b82905560408051918252602082018390527f37cd71faac1e03245089e1f80709a8db3925386e5e5f01e3958dafa369a34b36910160405180910390a15050565b60008060008060008511610ca85760405162461bcd60e51b8152602060048201526017602482015276496e76616c6964206e756d626572206f66206974656d7360481b6044820152606401610309565b6000670de0b6b3a764000060065487610cc191906116c6565b610ccb91906116dd565b905060006002670de0b6b3a7640000600754670de0b6b3a764000060018b610cf3919061161d565b610cfd908c6116c6565b610d0791906116dd565b610d1191906116c6565b610d1b91906116dd565b610d2591906116dd565b905080600654610d35919061160a565b9450610d4c6008548361154590919063ffffffff16565b9250610d636009548361154590919063ffffffff16565b935082610d70858461160a565b610d7a919061160a565b955050509193509193565b600082118015610d955750600081115b8015610dc0575081670de0b6b3a764000060065483610db491906116c6565b610dbe91906116dd565b145b610dfe5760405162461bcd60e51b815260206004820152600f60248201526e496e76616c696420616d6f756e747360881b6044820152606401610309565b8160046000828254610e10919061160a565b925050819055508060056000828254610e29919061160a565b90915550506002546040516323b872dd60e01b81526001600160a01b03909116906323b872dd90610e6290339030908790600401611630565b6020604051808303816000875af1158015610e81573d6000803e3d6000fd5b505050506040513d601f19601f82011682018060405250810190610ea59190611654565b506003546040516323b872dd60e01b81526001600160a01b03909116906323b872dd90610eda90339030908690600401611630565b6020604051808303816000875af1158015610ef9573d6000803e3d6000fd5b505050506040513d601f19601f82011682018060405250810190610f1d9190611654565b50604080518381526020810183905233917fac1d76749e5447b7b16f5ab61447e1bd502f3bb4807af3b28e620d1700a6ee45910160405180910390a25050565b610f65611442565b600a544210610fb25760405162461bcd60e51b8152602060048201526019602482015278139bdd081a5b881c1d589b1a58c81cd85b19481c195c9a5bd9603a1b6044820152606401610309565b600081116110025760405162461bcd60e51b815260206004820152601b60248201527f4d7573742073656c6c206174206c65617374206f6e65206974656d00000000006044820152606401610309565b6000670de0b6b3a7640000600b548361101b91906116c6565b61102591906116dd565b90508160046000828254611039919061160a565b925050819055508060056000828254611052919061161d565b90915550506002546040516323b872dd60e01b81526001600160a01b03909116906323b872dd9061108b90339030908790600401611630565b6020604051808303816000875af11580156110aa573d6000803e3d6000fd5b505050506040513d601f19601f820116820180604052508101906110ce9190611654565b6111125760405162461bcd60e51b8152602060048201526015602482015274105cdcd95d081d1c985b9cd9995c8819985a5b1959605a1b6044820152606401610309565b6003546040516370a0823160e01b815230600482015282916001600160a01b0316906370a0823190602401602060405180830381865afa15801561115a573d6000803e3d6000fd5b505050506040513d601f19601f8201168201806040525081019061117e9190611676565b10156111cc5760405162461bcd60e51b815260206004820152601b60248201527f496e73756666696369656e742055534443206c697175696469747900000000006044820152606401610309565b60035460405163a9059cbb60e01b8152336004820152602481018390526001600160a01b039091169063a9059cbb906044016020604051808303816000875af115801561121d573d6000803e3d6000fd5b505050506040513d601f19601f820116820180604052508101906112419190611654565b50604080518381526020810183905233917f4649bca94dacc8cff7b6f4c534914e8a9bb5a78a628497b9d49930d2cef0dc6391016108f3565b600080600080600085116112ca5760405162461bcd60e51b8152602060048201526017602482015276496e76616c6964206e756d626572206f66206974656d7360481b6044820152606401610309565b6006546000906112e287670de0b6b3a76400006116c6565b6112ec91906116dd565b905060006002670de0b6b3a7640000600754670de0b6b3a76400008a6001611314919061160a565b61131e908c6116c6565b61132891906116dd565b61133291906116c6565b61133c91906116dd565b61134691906116dd565b9050600060065482670de0b6b3a764000061136191906116c6565b61136b91906116dd565b90508060065461137b919061161d565b95506113926008548461154590919063ffffffff16565b93506113a96009548461154590919063ffffffff16565b9450836113b6868561161d565b6113c0919061161d565b96505050509193509193565b6113d461149b565b6001600160a01b0381166114395760405162461bcd60e51b815260206004820152602660248201527f4f776e61626c653a206e6577206f776e657220697320746865207a65726f206160448201526564647265737360d01b6064820152608401610309565b6105e6816114f5565b6002600154036114945760405162461bcd60e51b815260206004820152601f60248201527f5265656e7472616e637947756172643a207265656e7472616e742063616c6c006044820152606401610309565b6002600155565b6000546001600160a01b03163314610bfd5760405162461bcd60e51b815260206004820181905260248201527f4f776e61626c653a2063616c6c6572206973206e6f7420746865206f776e65726044820152606401610309565b600080546001600160a01b038381166001600160a01b0319831681178455604051919092169283917f8be0079c531659141344cd1fd0a4f28419497f9722a3daafe3b4186f6b6457e09190a35050565b600061155a8383670de0b6b3a7640000611563565b90505b92915050565b600082600019048411830215820261157a57600080fd5b50910281810615159190040190565b60006020828403121561159b57600080fd5b5035919050565b600080604083850312156115b557600080fd5b50508035926020909101359150565b6000602082840312156115d657600080fd5b81356001600160a01b03811681146115ed57600080fd5b9392505050565b634e487b7160e01b600052601160045260246000fd5b8082018082111561155d5761155d6115f4565b8181038181111561155d5761155d6115f4565b6001600160a01b039384168152919092166020820152604081019190915260600190565b60006020828403121561166657600080fd5b815180151581146115ed57600080fd5b60006020828403121561168857600080fd5b5051919050565b6020808252601c908201527f496e73756666696369656e74206173736574206c697175696469747900000000604082015260600190565b808202811582820484141761155d5761155d6115f4565b6000826116fa57634e487b7160e01b600052601260045260246000fd5b50049056fea264697066735822122045d0f3536b9cd34c53aa7ff68968c7857b972011ac1c79bf34f6931fd75562fa64736f6c63430008130033a264697066735822122070c213c24616c298032c4705813c32780aef64b71ff2a53fba5cfa1c663d993164736f6c63430008130033",
  "devdoc": {
    "kind": "dev",
    "methods": {},
    "version": 1
  },
  "userdoc": {
    "kind": "user",
    "methods": {
      "createPool((address,uint256,address,uint256,uint256,uint256,uint256,uint256,uint256,uint256))": {
        "notice": "  "
      },
      "getAllPools()": {
        "notice": "    "
      },
      "getAllPoolsInfo()": {
        "notice": "    "
      },
      "getPoolInfo(address)": {
        "notice": "    "
      },
      "pools(uint256)": {
        "notice": "  "
      }
    },
    "version": 1
  },
  "storageLayout": {
    "storage": [
      {
        "astId": 8342,
        "contract": "src/contracts/PlantyFactory.sol:PlantyFactory",
        "label": "pools",
        "offset": 0,
        "slot": "0",
        "type": "t_array(t_contract(PlantyPool)9454)dyn_storage"
      },
      {
        "astId": 8344,
        "contract": "src/contracts/PlantyFactory.sol:PlantyFactory",
        "label": "admin",
        "offset": 0,
        "slot": "1",
        "type": "t_address"
      }
    ],
    "types": {
      "t_address": {
        "encoding": "inplace",
        "label": "address",
        "numberOfBytes": "20"
      },
      "t_array(t_contract(PlantyPool)9454)dyn_storage": {
        "base": "t_contract(PlantyPool)9454",
        "encoding": "dynamic_array",
        "label": "contract PlantyPool[]",
        "numberOfBytes": "32"
      },
      "t_contract(PlantyPool)9454": {
        "encoding": "inplace",
        "label": "contract PlantyPool",
        "numberOfBytes": "20"
      }
    }
  }
}